:1000000024C000000000000000000000000000000C
:1000100000000000000000000000000000000000E0
:1000200000000000000000000000000000000000D0
:1000300000000000000000000000000000000000C0
:1000400000C03FB72A953FBF189500E00FBF0FEFE4
:100050000DBF08E00EBF00E204B9002704BD05E0B3
:1000600005BD002706BD01E0CEE6D0E0088328E20A
:1000700000E21127789488952223E9F728E21027D7
:0400800015B9F9CFE6
:00000001FF
